{
  "contractName": "ProviderRating",
  "abi": [
    {
      "constant": true,
      "inputs": [
        {
          "name": "",
          "type": "uint256"
        }
      ],
      "name": "providerIdentificationNumbers",
      "outputs": [
        {
          "name": "",
          "type": "address"
        }
      ],
      "payable": false,
      "stateMutability": "view",
      "type": "function"
    },
    {
      "constant": true,
      "inputs": [
        {
          "name": "",
          "type": "uint256"
        }
      ],
      "name": "surveyKeys",
      "outputs": [
        {
          "name": "",
          "type": "bytes32"
        }
      ],
      "payable": false,
      "stateMutability": "view",
      "type": "function"
    },
    {
      "inputs": [],
      "payable": false,
      "stateMutability": "nonpayable",
      "type": "constructor"
    },
    {
      "constant": true,
      "inputs": [
        {
          "name": "ratingHash",
          "type": "bytes32"
        }
      ],
      "name": "validRatingHash",
      "outputs": [
        {
          "name": "",
          "type": "bool"
        }
      ],
      "payable": false,
      "stateMutability": "view",
      "type": "function"
    },
    {
      "constant": false,
      "inputs": [
        {
          "name": "_surveyKey",
          "type": "bytes32"
        },
        {
          "name": "hashOfProviderNameAndSurveyKey",
          "type": "bytes32"
        },
        {
          "name": "_providerName",
          "type": "bytes32"
        },
        {
          "name": "_providerPostalAddress",
          "type": "string"
        },
        {
          "name": "_providerIdentificationNumber",
          "type": "bytes32"
        },
        {
          "name": "_score",
          "type": "uint256"
        },
        {
          "name": "_comment",
          "type": "string"
        }
      ],
      "name": "rateProvider",
      "outputs": [],
      "payable": false,
      "stateMutability": "nonpayable",
      "type": "function"
    },
    {
      "constant": true,
      "inputs": [
        {
          "name": "ratingHash",
          "type": "bytes32"
        }
      ],
      "name": "getRatingAuthorKeyForRatingHash",
      "outputs": [
        {
          "name": "",
          "type": "bytes32"
        }
      ],
      "payable": false,
      "stateMutability": "view",
      "type": "function"
    },
    {
      "constant": true,
      "inputs": [
        {
          "name": "ratingHash",
          "type": "bytes32"
        }
      ],
      "name": "getRatingProviderNameForRatingHash",
      "outputs": [
        {
          "name": "",
          "type": "bytes32"
        }
      ],
      "payable": false,
      "stateMutability": "view",
      "type": "function"
    },
    {
      "constant": true,
      "inputs": [
        {
          "name": "ratingHash",
          "type": "bytes32"
        }
      ],
      "name": "getRatingCommentForRatingHash",
      "outputs": [
        {
          "name": "",
          "type": "string"
        }
      ],
      "payable": false,
      "stateMutability": "view",
      "type": "function"
    },
    {
      "constant": true,
      "inputs": [
        {
          "name": "ratingHash",
          "type": "bytes32"
        }
      ],
      "name": "getRatingScoreForRatingHash",
      "outputs": [
        {
          "name": "",
          "type": "uint256"
        }
      ],
      "payable": false,
      "stateMutability": "view",
      "type": "function"
    },
    {
      "constant": true,
      "inputs": [],
      "name": "getNumberOfRatingsSaved",
      "outputs": [
        {
          "name": "",
          "type": "uint256"
        }
      ],
      "payable": false,
      "stateMutability": "view",
      "type": "function"
    },
    {
      "constant": true,
      "inputs": [
        {
          "name": "index",
          "type": "uint256"
        }
      ],
      "name": "getRatingHashAtIndex",
      "outputs": [
        {
          "name": "",
          "type": "bytes32"
        }
      ],
      "payable": false,
      "stateMutability": "view",
      "type": "function"
    }
  ],
  "bytecode": "0x608060405234801561001057600080fd5b50610d1d806100206000396000f3006080604052600436106100a4576000357c0100000000000000000000000000000000000000000000000000000000900463ffffffff16806308e36e7d146100a9578063132ac0f4146100d457806328f6cecc14610111578063395a5b061461014e578063491c48cd1461018b57806349cf8594146101b45780636ec10cf0146101f157806386f60b941461022e5780639bd13f441461026b578063db5ffee8146102a8575b600080fd5b3480156100b557600080fd5b506100be6102e5565b6040516100cb9190610bbd565b60405180910390f35b3480156100e057600080fd5b506100fb60048036036100f691908101906109b8565b6102f2565b6040516101089190610bbd565b60405180910390f35b34801561011d57600080fd5b5061013860048036036101339190810190610aaf565b61031a565b6040516101459190610b4a565b60405180910390f35b34801561015a57600080fd5b5061017560048036036101709190810190610aaf565b610358565b6040516101829190610b80565b60405180910390f35b34801561019757600080fd5b506101b260048036036101ad91908101906109e1565b61037b565b005b3480156101c057600080fd5b506101db60048036036101d691908101906109b8565b610676565b6040516101e89190610b9b565b60405180910390f35b3480156101fd57600080fd5b50610218600480360361021391908101906109b8565b610736565b6040516102259190610b65565b60405180910390f35b34801561023a57600080fd5b50610255600480360361025091908101906109b8565b610795565b6040516102629190610b80565b60405180910390f35b34801561027757600080fd5b50610292600480360361028d9190810190610aaf565b6107c0565b60405161029f9190610b80565b60405180910390f35b3480156102b457600080fd5b506102cf60048036036102ca91908101906109b8565b6107e3565b6040516102dc9190610b80565b60405180910390f35b6000600480549050905090565b6000600260008360001916600019168152602001908152602001600020600601549050919050565b60058181548110151561032957fe5b906000526020600020016000915054906101000a900473ffffffffffffffffffffffffffffffffffffffff1681565b600060048281548110151561036957fe5b90600052602060002001549050919050565b6000806000806000600160008d6000191660001916815260200190815260200160002060010160009054906101000a900460ff16156103d657600160008d600019166000191681526020019081526020016000209450610421565b600160008d6000191660001916815260200190815260200160002093508b84600001816000191690555060018460010160006101000a81548160ff0219169083151502179055508394505b600080896000191660001916815260200190815260200160002060030160009054906101000a900460ff161561047257600080896000191660001916815260200190815260200160002092506104e2565b6000808960001916600019168152602001908152602001600020915089826000018160001916905550888260010190805190602001906104b392919061080e565b508782600201816000191690555060018260030160006101000a81548160ff0219169083151502179055508192505b600260008c6000191660001916815260200190815260200160002060080160009054906101000a900460ff161561051857600080fd5b600260008c6000191660001916815260200190815260200160002090508481600001600082015481600001906000191690556001820160009054906101000a900460ff168160010160006101000a81548160ff021916908315150217905550905050828160020160008201548160000190600019169055600182018160010190805460018160011615610100020316600290046105b692919061088e565b50600282015481600201906000191690556003820160009054906101000a900460ff168160030160006101000a81548160ff0219169083151502179055509050508681600601819055508581600701908051906020019061061892919061080e565b5060018160080160006101000a81548160ff02191690831515021790555060048b9080600181540180825580915050906001820390600052602060002001600090919290919091509060001916905550505050505050505050505050565b60606002600083600019166000191681526020019081526020016000206007018054600181600116156101000203166002900480601f01602080910402602001604051908101604052809291908181526020018280546001816001161561010002031660029004801561072a5780601f106106ff5761010080835404028352916020019161072a565b820191906000526020600020905b81548152906001019060200180831161070d57829003601f168201915b50505050509050919050565b600080600090505b60048054905081101561078a57826000191660048281548110151561075f57fe5b906000526020600020015460001916141561077d576000915061078f565b808060010191505061073e565b600091505b50919050565b6000600260008360001916600019168152602001908152602001600020600201600001549050919050565b6003818154811015156107cf57fe5b906000526020600020016000915090505481565b6000600260008360001916600019168152602001908152602001600020600001600001549050919050565b828054600181600116156101000203166002900490600052602060002090601f016020900481019282601f1061084f57805160ff191683800117855561087d565b8280016001018555821561087d579182015b8281111561087c578251825591602001919060010190610861565b5b50905061088a9190610915565b5090565b828054600181600116156101000203166002900490600052602060002090601f016020900481019282601f106108c75780548555610904565b8280016001018555821561090457600052602060002091601f016020900482015b828111156109035782548255916001019190600101906108e8565b5b5090506109119190610915565b5090565b61093791905b8082111561093357600081600090555060010161091b565b5090565b90565b60006109468235610c7c565b905092915050565b600082601f830112151561096157600080fd5b813561097461096f82610c05565b610bd8565b9150808252602083016020830185838301111561099057600080fd5b61099b838284610c90565b50505092915050565b60006109b08235610c86565b905092915050565b6000602082840312156109ca57600080fd5b60006109d88482850161093a565b91505092915050565b600080600080600080600060e0888a0312156109fc57600080fd5b6000610a0a8a828b0161093a565b9750506020610a1b8a828b0161093a565b9650506040610a2c8a828b0161093a565b955050606088013567ffffffffffffffff811115610a4957600080fd5b610a558a828b0161094e565b9450506080610a668a828b0161093a565b93505060a0610a778a828b016109a4565b92505060c088013567ffffffffffffffff811115610a9457600080fd5b610aa08a828b0161094e565b91505092959891949750929550565b600060208284031215610ac157600080fd5b6000610acf848285016109a4565b91505092915050565b610ae181610c3c565b82525050565b610af081610c5c565b82525050565b610aff81610c68565b82525050565b6000610b1082610c31565b808452610b24816020860160208601610c9f565b610b2d81610cd2565b602085010191505092915050565b610b4481610c72565b82525050565b6000602082019050610b5f6000830184610ad8565b92915050565b6000602082019050610b7a6000830184610ae7565b92915050565b6000602082019050610b956000830184610af6565b92915050565b60006020820190508181036000830152610bb58184610b05565b905092915050565b6000602082019050610bd26000830184610b3b565b92915050565b6000604051905081810181811067ffffffffffffffff82111715610bfb57600080fd5b8060405250919050565b600067ffffffffffffffff821115610c1c57600080fd5b601f19601f8301169050602081019050919050565b600081519050919050565b600073ffffffffffffffffffffffffffffffffffffffff82169050919050565b60008115159050919050565b6000819050919050565b6000819050919050565b6000819050919050565b6000819050919050565b82818337600083830152505050565b60005b83811015610cbd578082015181840152602081019050610ca2565b83811115610ccc576000848401525b50505050565b6000601f19601f83011690509190505600a265627a7a723058201c1005d53f9287b538f5defa84420acc8843535967757fa34f26930956e6a6516c6578706572696d656e74616cf50037",
  "source": "pragma solidity ^0.4.24;\npragma experimental ABIEncoderV2;\n\ncontract ProviderRating {\n\n    function ProviderRating(){\n\n    }\n    struct Provider {\n        bytes32 name;\n        string providerPostalAddress; // we use a string data type here because bytes32 can only fit 32 characters (addresses might be longer)\n        bytes32 providerIdentificationNumber;\n        bool isValue;\n    }\n\n    struct User {\n        bytes32 surveyKey;\n        bool isValue; //https://ethereum.stackexchange.com/questions/13021/how-can-you-figure-out-if-a-certain-key-exists-in-a-mapping-struct-defined-insi\n    }\n\n    struct Rating {\n        User author;\n        Provider provider;\n        uint score;\n        string comment; // we use a string data type here because bytes32 can onl fit 32 characters (comments might be longer)\n        bool isValue;\n    }\n\n    mapping (bytes32 => Provider) providers; // we map the providers through their identification number\n    mapping(bytes32 => User) users;\n    mapping(bytes32 => Rating) ratings; // we map the ratings through a hash string that gets created out of the\n\n\n\n    // the key for the users that voted is the survey key that they used\n    bytes32[] public surveyKeys;\n    bytes32[] ratingHashes;\n    address[] public providerIdentificationNumbers;\n\n\n    function validRatingHash(bytes32 ratingHash) view public returns (bool) {\n        // we assure that a rating hash does not exist yet\n        for (uint i = 0; i < ratingHashes.length; i++) {\n            if (ratingHashes[i] == ratingHash) {\n                return false;\n            }\n        }\n        return false;\n    }\n\n    function rateProvider(bytes32 _surveyKey, bytes32 hashOfProviderNameAndSurveyKey, bytes32 _providerName, string _providerPostalAddress, bytes32 _providerIdentificationNumber, uint _score, string _comment) public {\n        // it is faster and costs less gas to compute the hash of of the providerName and the SurveyKey on the client and pass it to this function rather than to securely compute it here\n\n\n        User userToUseForRating;\n        // we check if the user that voted already exists in our storage\n        if(users[_surveyKey].isValue){\n            userToUseForRating = users[_surveyKey];\n        }else{\n        // we create a new user\n            var newUser = users[_surveyKey];\n            newUser.surveyKey = _surveyKey;\n            newUser.isValue = true;\n            userToUseForRating = newUser;\n\n        }\n        Provider providerToUseForRating;\n        // we check if the provider that got a review already exists in our storage\n        if(providers[_providerIdentificationNumber].isValue){\n            providerToUseForRating = providers[_providerIdentificationNumber];\n        }else{\n        // we create a new Provider\n            var newProvider = providers[_providerIdentificationNumber];\n            newProvider.name = _providerName;\n            newProvider.providerPostalAddress = _providerPostalAddress;\n            newProvider.providerIdentificationNumber = _providerIdentificationNumber;\n            newProvider.isValue = true;\n            providerToUseForRating = newProvider;\n        }\n        if(ratings[hashOfProviderNameAndSurveyKey].isValue){\n            revert(); // duplicate submission this should not be allowed\n        }else{\n            var newRating = ratings[hashOfProviderNameAndSurveyKey];\n            newRating.author = userToUseForRating;\n            newRating.provider = providerToUseForRating;\n            newRating.score = _score;\n            newRating.comment = _comment;\n            newRating.isValue = true;\n            ratingHashes.push(hashOfProviderNameAndSurveyKey);\n        }\n\n    }\n    function getRatingAuthorKeyForRatingHash(bytes32 ratingHash)  public constant returns(bytes32){\n        return ratings[ratingHash].author.surveyKey;\n\n    }\n    function getRatingProviderNameForRatingHash(bytes32 ratingHash) view public returns(bytes32){\n        return ratings[ratingHash].provider.name;\n\n    }\n    function getRatingCommentForRatingHash(bytes32 ratingHash) view public returns (string){\n        return ratings[ratingHash].comment;\n\n    }\n\n    function getRatingScoreForRatingHash(bytes32 ratingHash) view public returns(uint) {\n        return ratings[ratingHash].score;\n    }\n\n    function getNumberOfRatingsSaved() view public returns(uint){\n        return ratingHashes.length;\n    }\n\n    function getRatingHashAtIndex(uint index) view public returns(bytes32){\n        return ratingHashes[index];\n    }\n\n\n}\n",
  "sourcePath": "/home/matyas/Programmierung/comunitaria/comunitaria_voting/truffle_project/contracts/ProviderRating.sol",
  "compiler": {
    "name": "solc",
    "version": "0.4.24+commit.e67f0147.Emscripten.clang"
  },
  "schemaVersion": "2.0.1",
  "updatedAt": "2018-09-27T16:24:34.345Z"
}