{
  "contractName": "Voting",
  "abi": [
    {
      "constant": true,
      "inputs": [
        {
          "name": "",
          "type": "uint256"
        }
      ],
      "name": "userKeysUsedForVoting",
      "outputs": [
        {
          "name": "",
          "type": "bytes32"
        }
      ],
      "payable": false,
      "stateMutability": "view",
      "type": "function"
    },
    {
      "constant": true,
      "inputs": [
        {
          "name": "",
          "type": "bytes32"
        }
      ],
      "name": "votesReceivedPerOption",
      "outputs": [
        {
          "name": "",
          "type": "uint8"
        }
      ],
      "payable": false,
      "stateMutability": "view",
      "type": "function"
    },
    {
      "constant": true,
      "inputs": [
        {
          "name": "",
          "type": "bytes32"
        }
      ],
      "name": "userKeyVotingHistoryLog",
      "outputs": [
        {
          "name": "",
          "type": "bytes32"
        }
      ],
      "payable": false,
      "stateMutability": "view",
      "type": "function"
    },
    {
      "constant": true,
      "inputs": [
        {
          "name": "",
          "type": "uint256"
        }
      ],
      "name": "votingOptions",
      "outputs": [
        {
          "name": "",
          "type": "bytes32"
        }
      ],
      "payable": false,
      "stateMutability": "view",
      "type": "function"
    },
    {
      "constant": true,
      "inputs": [
        {
          "name": "",
          "type": "uint256"
        }
      ],
      "name": "votesReceived",
      "outputs": [
        {
          "name": "",
          "type": "uint8"
        }
      ],
      "payable": false,
      "stateMutability": "view",
      "type": "function"
    },
    {
      "constant": true,
      "inputs": [],
      "name": "votingName",
      "outputs": [
        {
          "name": "",
          "type": "bytes32"
        }
      ],
      "payable": false,
      "stateMutability": "view",
      "type": "function"
    },
    {
      "inputs": [
        {
          "name": "votingOptionsForTopic",
          "type": "bytes32[]"
        },
        {
          "name": "votesReceivedForTopic",
          "type": "uint8[]"
        },
        {
          "name": "userKeysForOptions",
          "type": "bytes32[]"
        },
        {
          "name": "votedOptionsForUserKeys",
          "type": "bytes32[]"
        },
        {
          "name": "votingNameForTopic",
          "type": "bytes32"
        }
      ],
      "payable": false,
      "stateMutability": "nonpayable",
      "type": "constructor"
    },
    {
      "constant": true,
      "inputs": [
        {
          "name": "option",
          "type": "bytes32"
        }
      ],
      "name": "getFullAmountOfVotesForOption",
      "outputs": [
        {
          "name": "",
          "type": "uint8"
        }
      ],
      "payable": false,
      "stateMutability": "view",
      "type": "function"
    },
    {
      "constant": true,
      "inputs": [
        {
          "name": "userKey",
          "type": "bytes32"
        }
      ],
      "name": "getVotedOptionForUserKey",
      "outputs": [
        {
          "name": "",
          "type": "bytes32"
        }
      ],
      "payable": false,
      "stateMutability": "view",
      "type": "function"
    },
    {
      "constant": true,
      "inputs": [
        {
          "name": "option",
          "type": "bytes32"
        }
      ],
      "name": "validVotingOption",
      "outputs": [
        {
          "name": "",
          "type": "bool"
        }
      ],
      "payable": false,
      "stateMutability": "view",
      "type": "function"
    },
    {
      "constant": true,
      "inputs": [
        {
          "name": "userKey",
          "type": "bytes32"
        }
      ],
      "name": "validUserKey",
      "outputs": [
        {
          "name": "",
          "type": "bool"
        }
      ],
      "payable": false,
      "stateMutability": "view",
      "type": "function"
    },
    {
      "constant": false,
      "inputs": [
        {
          "name": "newVotingName",
          "type": "bytes32"
        }
      ],
      "name": "setVotingName",
      "outputs": [],
      "payable": false,
      "stateMutability": "nonpayable",
      "type": "function"
    },
    {
      "constant": true,
      "inputs": [],
      "name": "getVotingName",
      "outputs": [
        {
          "name": "",
          "type": "bytes32"
        }
      ],
      "payable": false,
      "stateMutability": "view",
      "type": "function"
    }
  ],
  "bytecode": "0x608060405234801561001057600080fd5b506040516109593803806109598339810180604052810190808051820192919060200180518201929190602001805182019291906020018051820192919060200180519060200190929190505050600080600080886000908051906020019061007a9291906101d2565b508760019080519060200190610091929190610225565b5086600290805190602001906100a89291906101d2565b50875189511415156100b957600080fd5b88519350600092505b838310156101395787838151811015156100d857fe5b90602001906020020151600360008b868151811015156100f457fe5b906020019060200201516000191660001916815260200190815260200160002060006101000a81548160ff021916908360ff16021790555082806001019350506100c2565b8551875114151561014957600080fd5b85519150600090505b818110156101b957858181518110151561016857fe5b9060200190602002015160046000898481518110151561018457fe5b906020019060200201516000191660001916815260200190815260200160002081600019169055508080600101915050610152565b8460058160001916905550505050505050505050610321565b828054828255906000526020600020908101928215610214579160200282015b828111156102135782518290600019169055916020019190600101906101f2565b5b50905061022191906102cc565b5090565b82805482825590600052602060002090601f016020900481019282156102bb5791602002820160005b8382111561028c57835183826101000a81548160ff021916908360ff160217905550926020019260010160208160000104928301926001030261024e565b80156102b95782816101000a81549060ff021916905560010160208160000104928301926001030261028c565b505b5090506102c891906102f1565b5090565b6102ee91905b808211156102ea5760008160009055506001016102d2565b5090565b90565b61031e91905b8082111561031a57600081816101000a81549060ff0219169055506001016102f7565b5090565b90565b610629806103306000396000f3006080604052600436106100ba576000357c0100000000000000000000000000000000000000000000000000000000900463ffffffff1680630c71c26b146100bf5780633977d375146100f05780634a58f58c146101395780636987e33c1461018457806376fb2264146101cd57806385e26ffd1461021a578063960a576714610263578063c615b521146102ae578063dff67f6b146102fb578063f3084a6314610344578063f61ceba41461038b578063fd73788a146103be575b600080fd5b3480156100cb57600080fd5b506100ee60048036038101908080356000191690602001909291905050506103f1565b005b3480156100fc57600080fd5b5061011b600480360381019080803590602001909291905050506103ff565b60405180826000191660001916815260200191505060405180910390f35b34801561014557600080fd5b506101686004803603810190808035600019169060200190929190505050610422565b604051808260ff1660ff16815260200191505060405180910390f35b34801561019057600080fd5b506101b36004803603810190808035600019169060200190929190505050610442565b604051808215151515815260200191505060405180910390f35b3480156101d957600080fd5b506101fc60048036038101908080356000191690602001909291905050506104a1565b60405180826000191660001916815260200191505060405180910390f35b34801561022657600080fd5b5061024960048036038101908080356000191690602001909291905050506104da565b604051808215151515815260200191505060405180910390f35b34801561026f57600080fd5b506102926004803603810190808035600019169060200190929190505050610539565b604051808260ff1660ff16815260200191505060405180910390f35b3480156102ba57600080fd5b506102dd600480360381019080803560001916906020019092919050505061057f565b60405180826000191660001916815260200191505060405180910390f35b34801561030757600080fd5b5061032660048036038101908080359060200190929190505050610597565b60405180826000191660001916815260200191505060405180910390f35b34801561035057600080fd5b5061036f600480360381019080803590602001909291905050506105ba565b604051808260ff1660ff16815260200191505060405180910390f35b34801561039757600080fd5b506103a06105ed565b60405180826000191660001916815260200191505060405180910390f35b3480156103ca57600080fd5b506103d36105f3565b60405180826000191660001916815260200191505060405180910390f35b806005816000191690555050565b60028181548110151561040e57fe5b906000526020600020016000915090505481565b60036020528060005260406000206000915054906101000a900460ff1681565b600080600090505b60028054905081101561049657826000191660028281548110151561046b57fe5b9060005260206000200154600019161415610489576001915061049b565b808060010191505061044a565b600091505b50919050565b60006104ac82610442565b15156104b757600080fd5b600460008360001916600019168152602001908152602001600020549050919050565b600080600090505b60008054905081101561052e57826000191660008281548110151561050357fe5b90600052602060002001546000191614156105215760019150610533565b80806001019150506104e2565b600091505b50919050565b6000610544826104da565b151561054f57600080fd5b60036000836000191660001916815260200190815260200160002060009054906101000a900460ff169050919050565b60046020528060005260406000206000915090505481565b6000818154811015156105a657fe5b906000526020600020016000915090505481565b6001818154811015156105c957fe5b9060005260206000209060209182820401919006915054906101000a900460ff1681565b60055481565b60006005549050905600a165627a7a72305820d722ff004e011ede198627ce182747c047ac498285892c2f8b1082116f97d7780029",
  "source": "pragma solidity ^0.4.0;\n\ncontract Voting {\n    // solidity cannot save a dictionary directly in the constructor this is why we have to create it\n    // with the help of 2 arrays\n    bytes32[] public votingOptions;\n    uint8[] public votesReceived;\n    bytes32[] public userKeysUsedForVoting;\n    mapping (bytes32 => uint8) public votesReceivedPerOption;\n    mapping (bytes32 => bytes32) public userKeyVotingHistoryLog;\n\n    bytes32 public votingName;\n\n    function Voting(bytes32[] votingOptionsForTopic, uint8[] votesReceivedForTopic,\n        bytes32[] userKeysForOptions, bytes32[] votedOptionsForUserKeys, bytes32 votingNameForTopic) public {\n        votingOptions = votingOptionsForTopic;\n        votesReceived = votesReceivedForTopic;\n        userKeysUsedForVoting = userKeysForOptions;\n\n        require(votingOptionsForTopic.length == votesReceivedForTopic.length);\n        uint votingOptionsForTopicLength = votingOptionsForTopic.length;\n        for (uint i=0; i<votingOptionsForTopicLength; i++) {\n            votesReceivedPerOption[votingOptionsForTopic[i]] = votesReceivedForTopic[i];\n        }\n\n        require(userKeysForOptions.length == votedOptionsForUserKeys.length);\n        uint votedOptionsForUserKeysLength = votedOptionsForUserKeys.length;\n        for (uint v=0; v<votedOptionsForUserKeysLength; v++){\n            userKeyVotingHistoryLog[userKeysForOptions[v]] = votedOptionsForUserKeys[v];\n        }\n\n        votingName = votingNameForTopic;\n    }\n\n    //  note: the most convenient thing would be to return the whole votes and voting history mapping.\n    //  there is a limitation in the ethereum evm that does not allow us to do this.\n    //  At the moment there's no way to enumerate the elements in a mapping. In order to know what to return,\n    //  Solidity would need to keep track of all of the keys that have been used, which it does not do\n    //  because of this we can only return the votes one by one by accessing the mapping directly\n    function getFullAmountOfVotesForOption(bytes32 option) view public returns (uint8){\n        require(validVotingOption(option));\n        return votesReceivedPerOption[option];\n    }\n    function getVotedOptionForUserKey(bytes32 userKey) view public returns (bytes32){\n        require(validUserKey(userKey));\n        return userKeyVotingHistoryLog[userKey];\n    }\n\n\n    function validVotingOption(bytes32 option) view public returns (bool) {\n        for (uint i = 0; i < votingOptions.length; i++) {\n            if (votingOptions[i] == option) {\n                return true;\n            }\n        }\n        return false;\n    }\n\n    function validUserKey(bytes32 userKey) view public returns (bool) {\n        for (uint i = 0; i < userKeysUsedForVoting.length; i++) {\n            if (userKeysUsedForVoting[i] == userKey) {\n                return true;\n            }\n        }\n        return false;\n    }\n\n\n\n    function setVotingName(bytes32 newVotingName) public {\n        votingName = newVotingName;\n    }\n\n    function getVotingName() view public returns (bytes32) {\n        return votingName;\n    }\n}\n",
  "sourcePath": "/home/matyas/Programmierung/comunitaria/comunitaria_voting/truffle_project/contracts/Voting.sol",
  "compiler": {
    "name": "solc",
    "version": "0.4.24+commit.e67f0147.Emscripten.clang"
  },
  "schemaVersion": "2.0.1",
  "updatedAt": "2018-09-27T16:24:34.351Z"
}